:1000000024C03EC03DC03CC03BC03AC039C038C02F
:1000100037C036C0E3C065C18AC132C031C030C00C
:100020002FC02EC02DC02CC02BC02AC029C028C074
:1000300027C026C0A4C0A5C0A4C0A3C0A2C0ACC095
:10004000ABC0B6C0B5C0B4C0BFC011241FBECFEF97
:10005000D2E0DEBFCDBF11E0A0E0B1E0ECE9F3E01B
:1000600002C005900D92A230B107D9F721E0A2E0BD
:10007000B1E001C01D92AE30B207E1F702D08CC1F1
:10008000BFCF1DD037D0789428E031E091E0E4E094
:10009000F1E013C08083909302014FEF54E36CE0D2
:1000A000415050406040E1F700C000008F5F8A304F
:1000B00089F731962E173F0751F380E0EBCFAAE086
:1000C000B1E01C92E4E0F1E0108211961C921197CD
:1000D000118212961C921297128213961C9213820E
:1000E0008FEE84B98FEF87B98AB984E085B918B8E3
:1000F0001BB808951092800089E1809381001092CE
:10010000820086E280936F0088EA91E690938700F0
:100110008093860080E694E5909389008093880020
:1001200080E491E590938B0080938A00909309017D
:100130008093080108959BB1917E9BB9813041F075
:1001400028F0823039F0833039F007C05A9A05C060
:10015000599A03C05C9A01C05B9A85B18C7E85B9BF
:1001600088B1807F88B98BB18E718BB9862F90E072
:100170008B30910590F5FC01E65EFF4F0994589A8B
:10018000089528B180E190E002C0959587956A9521
:10019000E2F7822B88B9089525B1655082E090E09E
:1001A00002C0959587956A95E2F7822B85B90895E7
:1001B0002BB1675080E890E002C0959587956A95CD
:1001C000E2F7822B8BB9089585B1836085B988B138
:1001D0008F6088B98BB1816E8BB908951F920F9291
:1001E0000FB60F9211242F933F934F935F936F930A
:1001F0007F938F939F93AF93BF93EF93FF937894E5
:10020000809103018F5F843018F4809303012EC026
:100210001092030180910201813041F5809100012B
:10022000909101018E5E92409093010180930001B4
:10023000883E9340D8F480910801909109019093F1
:1002400001018093000110920201EAE0F1E0A4E0D4
:10025000B1E08C91808311968C91119781831296D5
:100260008C911297828313968C91838380910301E2
:10027000E82FF0E0E65FFE4F60815DDF80910201D4
:100280008130B1F48091030190E0FC01EC5FFE4FFE
:10029000DC01A65FBE4F20818C91281749F0809128
:1002A00000019091010190938B0080938A0008C017
:1002B000809108019091090190938B0080938A00AE
:1002C000FF91EF91BF91AF919F918F917F916F912E
:1002D0005F914F913F912F910F900FBE0F901F9004
:1002E00018951F920F920FB60F9211242F933F93E0
:1002F0004F935F936F937F938F939F93AF93BF932E
:10030000EF93FF9378946AE085E015DFFF91EF911A
:10031000BF91AF919F918F917F916F915F914F911D
:100320003F912F910F900FBE0F901F9018951F9225
:100330000F920FB60F9211242F933F934F935F9319
:100340006F937F938F939F93AF93BF93EF93FF939D
:10035000789480910201813071F480910301282FFB
:1003600030E0F901EC5FFE4F6081F901E65FFE4F7E
:1003700090816913E0DEFF91EF91BF91AF919F9162
:100380008F917F916F915F914F913F912F910F903E
:0C0390000FBE0F901F901895F894FFCF3F
:02039C006054AB
:00000001FF
